:100000009FC00000B8C00000B6C00000B4C000002F
:10001000B2C00000B0C00000AEC00000ACC0000024
:10002000AAC00000A8C00000A6C0000006C50000CD
:10003000A2C00000A0C000009EC000009CC0000044
:100040009AC0000098C0000096C0000094C0000054
:1000500092C0000090C000008EC0000097C1000058
:100060008AC0000088C0000086C0000084C0000074
:1000700082C0000022036F0072007A0061006200FB
:1000800061006C005F006B006500790062006F002A
:1000900061007200640000002A034F0072007A00C1
:1000A0006100620061006C002000730079006E0046
:1000B0007400680020006100640064002D006F007F
:1000C0006E0000000403090409026500020100C07B
:1000D00032090400000001010000092401000109A7
:1000E00000010109040100020103000007240100CE
:1000F0000141000624020101000624020202000957
:100100002403010301020100092403020401010187
:100110000009050202400005000005250101010952
:1001200005810240000500000525010103120110B0
:100130000100000008EB034820010001020001005B
:1001400011241FBECFEFD2E0DEBFCDBF11E0A0E093
:10015000B1E0EAE6FEE002C005900D92A030B107E2
:10016000D9F721E0A0E0B1E001C01D92AD31B207A6
:10017000E1F7CBD078C644CF84B7877F84BF0FB672
:10018000F894A89580916000886180936000109237
:1001900060000FBE8FE190E09093CD008093CC0083
:1001A00086E08093CA001092C800E9ECF0E088E194
:1001B0008083539A5A9A84E085BD108288E98083AF
:1001C000469A3E9A90E080E80FB6F89480936100DA
:1001D000909361000FBE8AB180638AB98BB180634E
:1001E0008BB91CC48BB180638F7D8BB908958BB1A3
:1001F00080638F7E8BB90895CF9342E361E881E0FD
:100200004DD3C82F42E360E882E048D3882311F041
:10021000C11102C080E101C080E29BB19063809572
:1002200089238BB9CF910895CF93C0911401C43025
:1002300031F581E08093E9008091E80080FF1FC0E4
:10024000809108018823D9F01092080140E050E025
:1002500064E070E084E091E0D4D1E4E0F1E0DF011B
:100260001D92CA95E9F78091E8008E778093E800A7
:100270005D9888E893E19093030180930201CF9108
:100280000895CF93DF9300D000D0CDB7DEB7809133
:100290001401843099F582E08093E9008091E800B0
:1002A00082FF2CC040E050E064E070E0CE01019697
:1002B000F2D18A819091C80095FFFCCF8093CE0047
:1002C0008B819091C80095FFFCCF8093CE008C81EC
:1002D0009091C80095FFFCCF8093CE005C9888E891
:1002E00093E190930101809300018091F2008111CC
:1002F00005C08091E8008B778093E8000F900F9005
:100300000F900F90DF91CF91089536DF7894789415
:100310008091020190910301009731F00197909331
:1003200003018093020101C05D9A809100019091C8
:100330000101009731F00197909301018093000132
:1003400001C05C9A9EDF70DF74D5E2CF87FF0CC0DE
:100350009CE0980F923040F0982F9B7F993F21F0BE
:10036000803F18F4807F089580E00895982F9F7E45
:10037000282F2F7C203839F0803E29F081E0903CF6
:1003800019F080E001C081E0817008951F920F9202
:100390000FB60F9211242F933F934F935F936F9358
:1003A0007F938F939F93AF93BF93CF93DF93EF93FD
:1003B000FF9380911401843009F0E0C0C091CE0019
:1003C00080910B01811178C0C0930D01D0910A0179
:1003D0008D2FBCDFCBDF882349F0C7FD07C0D0934A
:1003E0000D01C0930E0181E080930B01C0910D01BE
:1003F0008C2FACDF813F91F188F4803B89F138F498
:10040000803971F1803A61F1803869F529C0803D09
:1004100029F1803E29F1803C31F520C0883F69F008
:1004200030F4833FD9F0E0F0863F39F01CC08A3FBA
:10043000D0F08D3F10F08E3FB0F08FE0809304013C
:10044000C0930501109206011092070181E080938C
:10045000080110920B011092090190C092E001C0B6
:1004600093E09093090190910B0140910901692F4C
:1004700070E0242F30E02150310962177307C4F077
:1004800082958F7080930401C093050180910E01C5
:1004900080930601433029F480910F018093070176
:1004A00002C01092070110920B01109209011BC0AB
:1004B0009F5F90930B0162C0C7FF19C0CD3F28F426
:1004C000CA3F28F4C83F99F402C0CE3F80F08C2F79
:1004D0003DDF82958F7080930401C09305011092D7
:1004E00006011092070181E08093080147C0482F60
:1004F00050E0FA01E35FFE4FC083D09109012D2F38
:1005000030E02150310942175307ACF1C0910D0181
:100510008C2F1CDF982F92959F7090930401C093AD
:10052000050190910E0190930601D33029F490912A
:100530000F019093070102C01092070110920B0166
:100540001092090191E090930801803B71F038F41A
:10055000803959F0803A49F0803851F406C0803D26
:1005600021F0803E11F0803C19F4C0930A0106C0CE
:1005700010920A0103C08F5F80930B01FF91EF91EE
:10058000DF91CF91BF91AF919F918F917F916F91AB
:100590005F914F913F912F910F900FBE0F901F9041
:1005A0001895292F33272230310559F02330310592
:1005B00069F021303105E9F482E190E02DE231E08B
:1005C0001CC085E690E028EC30E017C09927813008
:1005D000910549F028F0029761F4E4E7F0E005C0E6
:1005E000E4ECF0E002C0E8E9F0E0849190E09F01E3
:1005F00004C080E090E020E030E0FA013183208305
:100600000895CF92DF92EF92FF920F931F93CF93B3
:10061000DF93EC018B017A0195D1811133C0E11494
:10062000F10439F0F70180819181081B190BC80F83
:10063000D91FC12CD12C0115110519F18091E800A9
:1006400085FD16C08091E8008E778093E800F1D395
:10065000E114F10449F0F70180819181C80ED91E9F
:10066000D182C08285E00EC06DD1882321F30AC0FB
:1006700089918093F10001501109FFEFCF1ADF0A31
:10068000DACF80E0DF91CF911F910F91FF90EF9033
:10069000DF90CF900895CF92DF92EF92FF920F9369
:1006A0001F93CF93DF93EC018B017A014BD1811122
:1006B00033C0E114F10439F0F70180819181081B06
:1006C000190BC80FD91FC12CD12C0115110519F117
:1006D0008091E80085FD16C08091E8008B778093BB
:1006E000E800A7D3E114F10449F0F701808191817A
:1006F000C80ED91ED182C08285E00EC023D18823C6
:1007000021F30AC08091F100899301501109FFEF94
:10071000CF1ADF0ADACF80E0DF91CF911F910F91DE
:10072000FF90EF90DF90CF90089520911B013091C2
:100730001C012617370748F06115710539F420911F
:10074000E8002E772093E80001C0B901FC0120E009
:100750006115710561F1809114018823D9F185300B
:10076000D9F18091E80083FD39C08091E80082FDD5
:100770002BC08091E80080FFEBCF8091F20090E0E9
:100780006115710551F08830910538F4219120935D
:10079000F100615071090196F3CF21E0089709F04B
:1007A00020E08091E8008E778093E800D1CF21117E
:1007B000D2CF0AC080911401882361F0853061F0A6
:1007C0008091E80083FD0AC08091E80082FFF2CFAB
:1007D00080E0089582E0089583E0089581E008951F
:1007E00020911B0130911C012617370748F0611535
:1007F000710539F42091E8002E772093E80001C0BC
:10080000B901FC0120E06115710579F180911401B5
:10081000882309F43DC0853009F43CC08091E8008C
:1008200083FD3AC08091E80082FD2CC08091E800F1
:1008300080FFE9CF8091F20090E06115710559F0D9
:100840008830910540F424912093F1003196615055
:1008500071090196F2CF21E0089709F020E080911C
:10086000E8008E778093E800CECF2111CFCF0AC069
:1008700080911401882361F0853061F08091E80057
:1008800083FD0AC08091E80082FFF2CF80E00895E6
:1008900082E0089583E0089581E00895982F9530CF
:1008A00068F59093E900981739F07091EC00209169
:1008B000ED005091F00003C0242F762F50E021FD71
:1008C00002C09F5FECCF3091EB003E7F3093EB0096
:1008D0003091ED003D7F3093ED003091EB003160C1
:1008E0003093EB007093EC002093ED005093F000F8
:1008F0002091EE0027FDE5CF80E008958F70809372
:10090000E90081E008958091150187FF11C0809171
:10091000E80082FD05C0809114018111F8CF11C05B
:100920008091E8008B770BC080911401882349F0F7
:100930008091E80080FFF8CF8091E8008E77809367
:10094000E80008952091E4003091E50095E640919B
:10095000EC00842F817040FF23C08091E80080FD6F
:100960001DC080911401882399F0853099F0809101
:10097000EB0085FD11C04091E4005091E500241783
:10098000350729F3915011F09A01E1CF84E00895E1
:1009900082E0089583E0089581E0089580E008955D
:1009A0004091E80042FFDDCF089541D043D08091CF
:1009B000D8008F778093D8008091D800806880938A
:1009C000D8008091D8008F7D8093D80084E089BDC5
:1009D00086E089BD09B400FEFDCF1092140110928B
:1009E0001001109212011092110142E060E080E0CB
:1009F00055DF8091E1008E7F8093E1008091E200DD
:100A000081608093E2008091E20088608093E20040
:100A10008091E0008E7F8093E0000895E3E6F0E0AF
:100A200080818E7F808381E080931301BECF1092FE
:100A3000E20008951092E10008951F920F920FB600
:100A40000F9211242F933F934F935F936F937F9354
:100A50008F939F93AF93BF93EF93FF938091E100A8
:100A600082FF0AC08091E20082FF06C08091E1000F
:100A70008B7F8093E100DCD18091E10080FF17C083
:100A80008091E20080FF13C08091E2008E7F80930E
:100A9000E2008091E20080618093E2008091D800C2
:100AA00080628093D80019BC10921401A0DB809161
:100AB000E10084FF2FC08091E20084FF2BC084E01E
:100AC00089BD86E089BD09B400FEFDCF8091D800C4
:100AD0008F7D8093D8008091E1008F7E8093E1002C
:100AE0008091E2008F7E8093E2008091E20081603D
:100AF0008093E20080911001882311F084E007C008
:100B00008091E30087FD02C081E001C083E0809313
:100B1000140168DB8091E10083FF22C08091E20034
:100B200083FF1EC08091E100877F8093E10082E017
:100B300080931401109210018091E1008E7F8093C8
:100B4000E1008091E2008E7F8093E2008091E200DC
:100B500080618093E20042E060E080E09FDE68D147
:100B6000FF91EF91BF91AF919F918F917F916F9185
:100B70005F914F913F912F910F900FBE0F901F905B
:100B800018951F93CF93DF93CDB7DEB7AA970FB613
:100B9000F894DEBF0FBECDBFE5E1F1E08091F1003A
:100BA000819321E0ED31F207C9F742D18091E8004D
:100BB00083FF26C18091150190911601953009F4AB
:100BC00078C030F4913081F168F0933069F118C148
:100BD000983009F4E2C0993009F4F1C0963009F078
:100BE0000FC189C0803881F0823809F009C1809135
:100BF00019018F708093E9008091EB0085FB8827B5
:100C000080F91092E90006C08091110190911201C3
:100C1000911182609091E800977F9093E800809313
:100C2000F1001092F100C4C0282F2D7F09F0E8C018
:100C3000882319F0823061F0E3C080911701813080
:100C400009F0DEC0933009F080E0809312012BC0E0
:100C500080911701811127C0809119018F7009F4CB
:100C6000CFC08093E9002091EB0020FF1CC093309F
:100C700021F48091EB00806214C09091EB009061B0
:100C80009093EB0021E030E0A90102C0440F551F12
:100C90008A95E2F74093EA001092EA008091EB0017
:100CA00088608093EB001092E9008091E800877FD4
:100CB00082C08111A5C0109117011F778091E300B8
:100CC0008078812B8093E3008091E800877F809378
:100CD000E80019DE8091E80080FFFCCF8091E300FE
:100CE00080688093E300111102C082E001C083E0BC
:100CF0008093140185C08058823008F081C08091B3
:100D00001701909118018C3D53E0950771F583E030
:100D10008A838AE289834FB7F894DE01139620E034
:100D20003EE051E2E32FF0E050935700E49120FFC2
:100D300003C0E295EF703F5FEF708E2F90E0EA30D6
:100D400010F0C79601C0C0968D939D932F5F2431FC
:100D500049F74FBF8091E800877F8093E8006AE2FF
:100D600070E0CE010196E1DC12C0AE014F5F5F4F33
:100D70006091190116DCBC01892B09F441C09091E6
:100D8000E800977F9093E80089819A8129DD80911E
:100D9000E8008B778093E80033C0803889F5809134
:100DA000E800877F8093E800809110018093F10034
:100DB0008091E8008E778093E800A5DD21C0811145
:100DC0001FC0809117019091180199270297C4F4D0
:100DD0008091E800877F8093E800809117018093DD
:100DE000100191DD80911001811106C08091E30016
:100DF00087FD02C081E001C084E080931401FCD92A
:100E00008091E80083FF0AC08091E800877F80938B
:100E1000E8008091EB0080628093EB00AA960FB609
:100E2000F894DEBF0FBECDBFDF91CF911F91089523
:100E30000895CF9380911401882399F0C091E9001F
:100E4000CF709091EC00892F817090FD80E8C82BC5
:100E50001092E9008091E80083FD93DECF70C0938B
:0A0E6000E900CF910895F894FFCF48
:00000001FF
